{
  "contractName": "NFTMarket",
  "abi": [
    {
      "inputs": [],
      "stateMutability": "nonpayable",
      "type": "constructor"
    },
    {
      "anonymous": false,
      "inputs": [
        {
          "indexed": true,
          "internalType": "uint256",
          "name": "itemId",
          "type": "uint256"
        },
        {
          "indexed": true,
          "internalType": "address",
          "name": "nftContract",
          "type": "address"
        },
        {
          "indexed": true,
          "internalType": "uint256",
          "name": "tokenId",
          "type": "uint256"
        },
        {
          "indexed": false,
          "internalType": "address",
          "name": "seller",
          "type": "address"
        },
        {
          "indexed": false,
          "internalType": "address",
          "name": "owner",
          "type": "address"
        },
        {
          "indexed": false,
          "internalType": "uint256",
          "name": "price",
          "type": "uint256"
        },
        {
          "indexed": false,
          "internalType": "bool",
          "name": "sold",
          "type": "bool"
        }
      ],
      "name": "MarketItemCreated",
      "type": "event"
    },
    {
      "inputs": [
        {
          "internalType": "uint256",
          "name": "",
          "type": "uint256"
        }
      ],
      "name": "idToMarketItem",
      "outputs": [
        {
          "internalType": "uint256",
          "name": "itemId",
          "type": "uint256"
        },
        {
          "internalType": "address",
          "name": "nftContract",
          "type": "address"
        },
        {
          "internalType": "uint256",
          "name": "tokenId",
          "type": "uint256"
        },
        {
          "internalType": "address payable",
          "name": "seller",
          "type": "address"
        },
        {
          "internalType": "address payable",
          "name": "owner",
          "type": "address"
        },
        {
          "internalType": "uint256",
          "name": "price",
          "type": "uint256"
        },
        {
          "internalType": "bool",
          "name": "sold",
          "type": "bool"
        }
      ],
      "stateMutability": "view",
      "type": "function"
    },
    {
      "inputs": [],
      "name": "getListingPrice",
      "outputs": [
        {
          "internalType": "uint256",
          "name": "",
          "type": "uint256"
        }
      ],
      "stateMutability": "view",
      "type": "function"
    },
    {
      "inputs": [
        {
          "internalType": "address",
          "name": "nftContract",
          "type": "address"
        },
        {
          "internalType": "uint256",
          "name": "tokenId",
          "type": "uint256"
        },
        {
          "internalType": "uint256",
          "name": "price",
          "type": "uint256"
        }
      ],
      "name": "createMarketItem",
      "outputs": [],
      "stateMutability": "payable",
      "type": "function"
    },
    {
      "inputs": [
        {
          "internalType": "address",
          "name": "nftContract",
          "type": "address"
        },
        {
          "internalType": "uint256",
          "name": "itemId",
          "type": "uint256"
        }
      ],
      "name": "createMarketSale",
      "outputs": [],
      "stateMutability": "payable",
      "type": "function"
    },
    {
      "inputs": [],
      "name": "fetchMarketItems",
      "outputs": [
        {
          "components": [
            {
              "internalType": "uint256",
              "name": "itemId",
              "type": "uint256"
            },
            {
              "internalType": "address",
              "name": "nftContract",
              "type": "address"
            },
            {
              "internalType": "uint256",
              "name": "tokenId",
              "type": "uint256"
            },
            {
              "internalType": "address payable",
              "name": "seller",
              "type": "address"
            },
            {
              "internalType": "address payable",
              "name": "owner",
              "type": "address"
            },
            {
              "internalType": "uint256",
              "name": "price",
              "type": "uint256"
            },
            {
              "internalType": "bool",
              "name": "sold",
              "type": "bool"
            }
          ],
          "internalType": "struct NFTMarket.MarketItem[]",
          "name": "",
          "type": "tuple[]"
        }
      ],
      "stateMutability": "view",
      "type": "function"
    },
    {
      "inputs": [],
      "name": "fetchMyNFTs",
      "outputs": [
        {
          "components": [
            {
              "internalType": "uint256",
              "name": "itemId",
              "type": "uint256"
            },
            {
              "internalType": "address",
              "name": "nftContract",
              "type": "address"
            },
            {
              "internalType": "uint256",
              "name": "tokenId",
              "type": "uint256"
            },
            {
              "internalType": "address payable",
              "name": "seller",
              "type": "address"
            },
            {
              "internalType": "address payable",
              "name": "owner",
              "type": "address"
            },
            {
              "internalType": "uint256",
              "name": "price",
              "type": "uint256"
            },
            {
              "internalType": "bool",
              "name": "sold",
              "type": "bool"
            }
          ],
          "internalType": "struct NFTMarket.MarketItem[]",
          "name": "",
          "type": "tuple[]"
        }
      ],
      "stateMutability": "view",
      "type": "function"
    },
    {
      "inputs": [],
      "name": "fetchItemsCreated",
      "outputs": [
        {
          "components": [
            {
              "internalType": "uint256",
              "name": "itemId",
              "type": "uint256"
            },
            {
              "internalType": "address",
              "name": "nftContract",
              "type": "address"
            },
            {
              "internalType": "uint256",
              "name": "tokenId",
              "type": "uint256"
            },
            {
              "internalType": "address payable",
              "name": "seller",
              "type": "address"
            },
            {
              "internalType": "address payable",
              "name": "owner",
              "type": "address"
            },
            {
              "internalType": "uint256",
              "name": "price",
              "type": "uint256"
            },
            {
              "internalType": "bool",
              "name": "sold",
              "type": "bool"
            }
          ],
          "internalType": "struct NFTMarket.MarketItem[]",
          "name": "",
          "type": "tuple[]"
        }
      ],
      "stateMutability": "view",
      "type": "function"
    }
  ],
  "bytecode": "0x60806040526658d15e1762800060045534801561001b57600080fd5b50600160008190555033600360006101000a81548173ffffffffffffffffffffffffffffffffffffffff021916908373ffffffffffffffffffffffffffffffffffffffff160217905550611a74806100746000396000f3fe6080604052600436106100705760003560e01c806358eb2df51161004e57806358eb2df5146100f6578063c23b139e14610112578063e61a70c01461012e578063f064c32e1461017157610070565b80630f08efe01461007557806312e85585146100a0578063202e3740146100cb575b600080fd5b34801561008157600080fd5b5061008a61019c565b6040516100979190611450565b60405180910390f35b3480156100ac57600080fd5b506100b5610466565b6040516100c29190611481565b60405180910390f35b3480156100d757600080fd5b506100e0610470565b6040516100ed9190611450565b60405180910390f35b610110600480360381019061010b91906114f9565b6107be565b005b61012c6004803603810190610127919061154c565b610b22565b005b34801561013a57600080fd5b506101556004803603810190610150919061158c565b610ddb565b60405161016897969594939291906115e6565b60405180910390f35b34801561017d57600080fd5b50610186610e8a565b6040516101939190611450565b60405180910390f35b606060006101aa60016111d8565b905060006101b860026111d8565b6101c260016111d8565b6101cc9190611684565b90506000808267ffffffffffffffff8111156101eb576101ea6116b8565b5b60405190808252806020026020018201604052801561022457816020015b6102116111fc565b8152602001906001900390816102095790505b50905060005b8481101561045b57600073ffffffffffffffffffffffffffffffffffffffff166005600060018461025b91906116e7565b815260200190815260200160002060040160009054906101000a900473ffffffffffffffffffffffffffffffffffffffff1673ffffffffffffffffffffffffffffffffffffffff1614156104485760006001826102b891906116e7565b90506000600560008381526020019081526020016000209050806040518060e0016040529081600082015481526020016001820160009054906101000a900473ffffffffffffffffffffffffffffffffffffffff1673ffffffffffffffffffffffffffffffffffffffff1673ffffffffffffffffffffffffffffffffffffffff168152602001600282015481526020016003820160009054906101000a900473ffffffffffffffffffffffffffffffffffffffff1673ffffffffffffffffffffffffffffffffffffffff1673ffffffffffffffffffffffffffffffffffffffff1681526020016004820160009054906101000a900473ffffffffffffffffffffffffffffffffffffffff1673ffffffffffffffffffffffffffffffffffffffff1673ffffffffffffffffffffffffffffffffffffffff168152602001600582015481526020016006820160009054906101000a900460ff16151515158152505084868151811061042b5761042a61173d565b5b602002602001018190525060018561044391906116e7565b945050505b80806104539061176c565b91505061022a565b508094505050505090565b6000600454905090565b6060600061047e60016111d8565b905060008060005b83811015610527573373ffffffffffffffffffffffffffffffffffffffff16600560006001846104b691906116e7565b815260200190815260200160002060040160009054906101000a900473ffffffffffffffffffffffffffffffffffffffff1673ffffffffffffffffffffffffffffffffffffffff1614156105145760018361051191906116e7565b92505b808061051f9061176c565b915050610486565b5060008267ffffffffffffffff811115610544576105436116b8565b5b60405190808252806020026020018201604052801561057d57816020015b61056a6111fc565b8152602001906001900390816105625790505b50905060005b848110156107b3573373ffffffffffffffffffffffffffffffffffffffff16600560006001846105b391906116e7565b815260200190815260200160002060040160009054906101000a900473ffffffffffffffffffffffffffffffffffffffff1673ffffffffffffffffffffffffffffffffffffffff1614156107a057600060018261061091906116e7565b90506000600560008381526020019081526020016000209050806040518060e0016040529081600082015481526020016001820160009054906101000a900473ffffffffffffffffffffffffffffffffffffffff1673ffffffffffffffffffffffffffffffffffffffff1673ffffffffffffffffffffffffffffffffffffffff168152602001600282015481526020016003820160009054906101000a900473ffffffffffffffffffffffffffffffffffffffff1673ffffffffffffffffffffffffffffffffffffffff1673ffffffffffffffffffffffffffffffffffffffff1681526020016004820160009054906101000a900473ffffffffffffffffffffffffffffffffffffffff1673ffffffffffffffffffffffffffffffffffffffff1673ffffffffffffffffffffffffffffffffffffffff168152602001600582015481526020016006820160009054906101000a900460ff1615151515815250508486815181106107835761078261173d565b5b602002602001018190525060018561079b91906116e7565b945050505b80806107ab9061176c565b915050610583565b508094505050505090565b60026000541415610804576040517f08c379a00000000000000000000000000000000000000000000000000000000081526004016107fb90611812565b60405180910390fd5b60026000819055506000811161084f576040517f08c379a00000000000000000000000000000000000000000000000000000000081526004016108469061187e565b60405180910390fd5b6004543414610893576040517f08c379a000000000000000000000000000000000000000000000000000000000815260040161088a90611910565b60405180910390fd5b61089d60016111e6565b60006108a960016111d8565b90506040518060e001604052808281526020018573ffffffffffffffffffffffffffffffffffffffff1681526020018481526020013373ffffffffffffffffffffffffffffffffffffffff168152602001600073ffffffffffffffffffffffffffffffffffffffff16815260200183815260200160001515815250600560008381526020019081526020016000206000820151816000015560208201518160010160006101000a81548173ffffffffffffffffffffffffffffffffffffffff021916908373ffffffffffffffffffffffffffffffffffffffff1602179055506040820151816002015560608201518160030160006101000a81548173ffffffffffffffffffffffffffffffffffffffff021916908373ffffffffffffffffffffffffffffffffffffffff16021790555060808201518160040160006101000a81548173ffffffffffffffffffffffffffffffffffffffff021916908373ffffffffffffffffffffffffffffffffffffffff16021790555060a0820151816005015560c08201518160060160006101000a81548160ff0219169083151502179055509050508373ffffffffffffffffffffffffffffffffffffffff166323b872dd3330866040518463ffffffff1660e01b8152600401610a8a93929190611930565b600060405180830381600087803b158015610aa457600080fd5b505af1158015610ab8573d6000803e3d6000fd5b50505050828473ffffffffffffffffffffffffffffffffffffffff16827f045dfa01dcba2b36aba1d3dc4a874f4b0c5d2fbeb8d2c4b34a7d88c8d8f929d1336000876000604051610b0c9493929190611967565b60405180910390a4506001600081905550505050565b60026000541415610b68576040517f08c379a0000000000000000000000000000000000000000000000000000000008152600401610b5f90611812565b60405180910390fd5b6002600081905550600060056000838152602001908152602001600020600501549050600060056000848152602001908152602001600020600201549050813414610be8576040517f08c379a0000000000000000000000000000000000000000000000000000000008152600401610bdf90611a1e565b60405180910390fd5b6005600084815260200190815260200160002060030160009054906101000a900473ffffffffffffffffffffffffffffffffffffffff1673ffffffffffffffffffffffffffffffffffffffff166108fc349081150290604051600060405180830381858888f19350505050158015610c64573d6000803e3d6000fd5b508373ffffffffffffffffffffffffffffffffffffffff166323b872dd3033846040518463ffffffff1660e01b8152600401610ca293929190611930565b600060405180830381600087803b158015610cbc57600080fd5b505af1158015610cd0573d6000803e3d6000fd5b50505050336005600085815260200190815260200160002060040160006101000a81548173ffffffffffffffffffffffffffffffffffffffff021916908373ffffffffffffffffffffffffffffffffffffffff16021790555060016005600085815260200190815260200160002060060160006101000a81548160ff021916908315150217905550610d6260026111e6565b600360009054906101000a900473ffffffffffffffffffffffffffffffffffffffff1673ffffffffffffffffffffffffffffffffffffffff166108fc6004549081150290604051600060405180830381858888f19350505050158015610dcc573d6000803e3d6000fd5b50505060016000819055505050565b60056020528060005260406000206000915090508060000154908060010160009054906101000a900473ffffffffffffffffffffffffffffffffffffffff16908060020154908060030160009054906101000a900473ffffffffffffffffffffffffffffffffffffffff16908060040160009054906101000a900473ffffffffffffffffffffffffffffffffffffffff16908060050154908060060160009054906101000a900460ff16905087565b60606000610e9860016111d8565b905060008060005b83811015610f41573373ffffffffffffffffffffffffffffffffffffffff1660056000600184610ed091906116e7565b815260200190815260200160002060030160009054906101000a900473ffffffffffffffffffffffffffffffffffffffff1673ffffffffffffffffffffffffffffffffffffffff161415610f2e57600183610f2b91906116e7565b92505b8080610f399061176c565b915050610ea0565b5060008267ffffffffffffffff811115610f5e57610f5d6116b8565b5b604051908082528060200260200182016040528015610f9757816020015b610f846111fc565b815260200190600190039081610f7c5790505b50905060005b848110156111cd573373ffffffffffffffffffffffffffffffffffffffff1660056000600184610fcd91906116e7565b815260200190815260200160002060030160009054906101000a900473ffffffffffffffffffffffffffffffffffffffff1673ffffffffffffffffffffffffffffffffffffffff1614156111ba57600060018261102a91906116e7565b90506000600560008381526020019081526020016000209050806040518060e0016040529081600082015481526020016001820160009054906101000a900473ffffffffffffffffffffffffffffffffffffffff1673ffffffffffffffffffffffffffffffffffffffff1673ffffffffffffffffffffffffffffffffffffffff168152602001600282015481526020016003820160009054906101000a900473ffffffffffffffffffffffffffffffffffffffff1673ffffffffffffffffffffffffffffffffffffffff1673ffffffffffffffffffffffffffffffffffffffff1681526020016004820160009054906101000a900473ffffffffffffffffffffffffffffffffffffffff1673ffffffffffffffffffffffffffffffffffffffff1673ffffffffffffffffffffffffffffffffffffffff168152602001600582015481526020016006820160009054906101000a900460ff16151515158152505084868151811061119d5761119c61173d565b5b60200260200101819052506001856111b591906116e7565b945050505b80806111c59061176c565b915050610f9d565b508094505050505090565b600081600001549050919050565b6001816000016000828254019250508190555050565b6040518060e0016040528060008152602001600073ffffffffffffffffffffffffffffffffffffffff16815260200160008152602001600073ffffffffffffffffffffffffffffffffffffffff168152602001600073ffffffffffffffffffffffffffffffffffffffff168152602001600081526020016000151581525090565b600081519050919050565b600082825260208201905092915050565b6000819050602082019050919050565b6000819050919050565b6112bc816112a9565b82525050565b600073ffffffffffffffffffffffffffffffffffffffff82169050919050565b60006112ed826112c2565b9050919050565b6112fd816112e2565b82525050565b600061130e826112c2565b9050919050565b61131e81611303565b82525050565b60008115159050919050565b61133981611324565b82525050565b60e08201600082015161135560008501826112b3565b50602082015161136860208501826112f4565b50604082015161137b60408501826112b3565b50606082015161138e6060850182611315565b5060808201516113a16080850182611315565b5060a08201516113b460a08501826112b3565b5060c08201516113c760c0850182611330565b50505050565b60006113d9838361133f565b60e08301905092915050565b6000602082019050919050565b60006113fd8261127d565b6114078185611288565b935061141283611299565b8060005b8381101561144357815161142a88826113cd565b9750611435836113e5565b925050600181019050611416565b5085935050505092915050565b6000602082019050818103600083015261146a81846113f2565b905092915050565b61147b816112a9565b82525050565b60006020820190506114966000830184611472565b92915050565b600080fd5b6114aa816112e2565b81146114b557600080fd5b50565b6000813590506114c7816114a1565b92915050565b6114d6816112a9565b81146114e157600080fd5b50565b6000813590506114f3816114cd565b92915050565b6000806000606084860312156115125761151161149c565b5b6000611520868287016114b8565b9350506020611531868287016114e4565b9250506040611542868287016114e4565b9150509250925092565b600080604083850312156115635761156261149c565b5b6000611571858286016114b8565b9250506020611582858286016114e4565b9150509250929050565b6000602082840312156115a2576115a161149c565b5b60006115b0848285016114e4565b91505092915050565b6115c2816112e2565b82525050565b6115d181611303565b82525050565b6115e081611324565b82525050565b600060e0820190506115fb600083018a611472565b61160860208301896115b9565b6116156040830188611472565b61162260608301876115c8565b61162f60808301866115c8565b61163c60a0830185611472565b61164960c08301846115d7565b98975050505050505050565b7f4e487b7100000000000000000000000000000000000000000000000000000000600052601160045260246000fd5b600061168f826112a9565b915061169a836112a9565b9250828210156116ad576116ac611655565b5b828203905092915050565b7f4e487b7100000000000000000000000000000000000000000000000000000000600052604160045260246000fd5b60006116f2826112a9565b91506116fd836112a9565b9250827fffffffffffffffffffffffffffffffffffffffffffffffffffffffffffffffff0382111561173257611731611655565b5b828201905092915050565b7f4e487b7100000000000000000000000000000000000000000000000000000000600052603260045260246000fd5b6000611777826112a9565b91507fffffffffffffffffffffffffffffffffffffffffffffffffffffffffffffffff8214156117aa576117a9611655565b5b600182019050919050565b600082825260208201905092915050565b7f5265656e7472616e637947756172643a207265656e7472616e742063616c6c00600082015250565b60006117fc601f836117b5565b9150611807826117c6565b602082019050919050565b6000602082019050818103600083015261182b816117ef565b9050919050565b7f5072696365206d757374206265206174206c6561737420312077656900000000600082015250565b6000611868601c836117b5565b915061187382611832565b602082019050919050565b600060208201905081810360008301526118978161185b565b9050919050565b7f5072696365206d75737420626520657175616c20746f206c697374696e67207060008201527f7269636500000000000000000000000000000000000000000000000000000000602082015250565b60006118fa6024836117b5565b91506119058261189e565b604082019050919050565b60006020820190508181036000830152611929816118ed565b9050919050565b600060608201905061194560008301866115b9565b61195260208301856115b9565b61195f6040830184611472565b949350505050565b600060808201905061197c60008301876115b9565b61198960208301866115b9565b6119966040830185611472565b6119a360608301846115d7565b95945050505050565b7f506c65617365207375626d6974207468652061736b696e67207072696365206960008201527f6e206f7264657220746f20636f6d706c65746520746865207075726368617365602082015250565b6000611a086040836117b5565b9150611a13826119ac565b604082019050919050565b60006020820190508181036000830152611a37816119fb565b905091905056fea2646970667358221220e0ef5b0e56a69140e43139da840272d1163e75f2f13b7f9c65012b40324651aa64736f6c63430008090033",
  "immutableReferences": {},
  "source": "// SPDX-License-Identifier: MIT OR Apache-2.0\r\npragma solidity ^0.8.3;\r\n\r\nimport \"@openzeppelin/contracts/utils/Counters.sol\";\r\nimport \"@openzeppelin/contracts/security/ReentrancyGuard.sol\";\r\nimport \"@openzeppelin/contracts/token/ERC721/ERC721.sol\";\r\n\r\nimport \"hardhat/console.sol\";\r\n\r\ncontract NFTMarket is ReentrancyGuard {\r\n  using Counters for Counters.Counter;\r\n  Counters.Counter private _itemIds;\r\n  Counters.Counter private _itemsSold;\r\n\r\n  address payable owner;\r\n  uint256 listingPrice = 0.025 ether;\r\n\r\n  constructor() {\r\n    owner = payable(msg.sender);\r\n  }\r\n\r\n  struct MarketItem {\r\n    uint itemId;\r\n    address nftContract;\r\n    uint256 tokenId;\r\n    address payable seller;\r\n    address payable owner;\r\n    uint256 price;\r\n    bool sold;\r\n  }\r\n\r\n  mapping(uint256 => MarketItem) public idToMarketItem;\r\n\r\n  event MarketItemCreated (\r\n    uint indexed itemId,\r\n    address indexed nftContract,\r\n    uint256 indexed tokenId,\r\n    address seller,\r\n    address owner,\r\n    uint256 price,\r\n    bool sold\r\n  );\r\n\r\n  /* Returns the listing price of the contract */\r\n  function getListingPrice() public view returns (uint256) {\r\n    return listingPrice;\r\n  }\r\n  \r\n  /* Places an item for sale on the marketplace */\r\n  function createMarketItem(\r\n    address nftContract,\r\n    uint256 tokenId,\r\n    uint256 price\r\n  ) public payable nonReentrant {\r\n    require(price > 0, \"Price must be at least 1 wei\");\r\n    require(msg.value == listingPrice, \"Price must be equal to listing price\");\r\n\r\n    _itemIds.increment();\r\n    uint256 itemId = _itemIds.current();\r\n  \r\n    idToMarketItem[itemId] =  MarketItem(\r\n      itemId,\r\n      nftContract,\r\n      tokenId,\r\n      payable(msg.sender),\r\n      payable(address(0)),\r\n      price,\r\n      false\r\n    );\r\n\r\n    IERC721(nftContract).transferFrom(msg.sender, address(this), tokenId);\r\n\r\n    emit MarketItemCreated(\r\n      itemId,\r\n      nftContract,\r\n      tokenId,\r\n      msg.sender,\r\n      address(0),\r\n      price,\r\n      false\r\n    );\r\n  }\r\n\r\n  /* Creates the sale of a marketplace item */\r\n  /* Transfers ownership of the item, as well as funds between parties */\r\n  function createMarketSale(\r\n    address nftContract,\r\n    uint256 itemId\r\n    ) public payable nonReentrant {\r\n    uint price = idToMarketItem[itemId].price;\r\n    uint tokenId = idToMarketItem[itemId].tokenId;\r\n    require(msg.value == price, \"Please submit the asking price in order to complete the purchase\");\r\n\r\n    idToMarketItem[itemId].seller.transfer(msg.value);\r\n    IERC721(nftContract).transferFrom(address(this), msg.sender, tokenId);\r\n    idToMarketItem[itemId].owner = payable(msg.sender);\r\n    idToMarketItem[itemId].sold = true;\r\n    _itemsSold.increment();\r\n    payable(owner).transfer(listingPrice);\r\n  }\r\n\r\n  /* Returns all unsold market items */\r\n  function fetchMarketItems() public view returns (MarketItem[] memory) {\r\n    uint itemCount = _itemIds.current();\r\n    uint unsoldItemCount = _itemIds.current() - _itemsSold.current();\r\n    uint currentIndex = 0;\r\n\r\n    MarketItem[] memory items = new MarketItem[](unsoldItemCount);\r\n    for (uint i = 0; i < itemCount; i++) {\r\n      if (idToMarketItem[i + 1].owner == address(0)) {\r\n        uint currentId = i + 1;\r\n        MarketItem storage currentItem = idToMarketItem[currentId];\r\n        items[currentIndex] = currentItem;\r\n        currentIndex += 1;\r\n      }\r\n    }\r\n    return items;\r\n  }\r\n\r\n  /* Returns onlyl items that a user has purchased */\r\n  function fetchMyNFTs() public view returns (MarketItem[] memory) {\r\n    uint totalItemCount = _itemIds.current();\r\n    uint itemCount = 0;\r\n    uint currentIndex = 0;\r\n\r\n    for (uint i = 0; i < totalItemCount; i++) {\r\n      if (idToMarketItem[i + 1].owner == msg.sender) {\r\n        itemCount += 1;\r\n      }\r\n    }\r\n\r\n    MarketItem[] memory items = new MarketItem[](itemCount);\r\n    for (uint i = 0; i < totalItemCount; i++) {\r\n      if (idToMarketItem[i + 1].owner == msg.sender) {\r\n        uint currentId = i + 1;\r\n        MarketItem storage currentItem = idToMarketItem[currentId];\r\n        items[currentIndex] = currentItem;\r\n        currentIndex += 1;\r\n      }\r\n    }\r\n    return items;\r\n  }\r\n\r\n  /* Returns only items a user has created */\r\n  function fetchItemsCreated() public view returns (MarketItem[] memory) {\r\n    uint totalItemCount = _itemIds.current();\r\n    uint itemCount = 0;\r\n    uint currentIndex = 0;\r\n\r\n    for (uint i = 0; i < totalItemCount; i++) {\r\n      if (idToMarketItem[i + 1].seller == msg.sender) {\r\n        itemCount += 1;\r\n      }\r\n    }\r\n\r\n    MarketItem[] memory items = new MarketItem[](itemCount);\r\n    for (uint i = 0; i < totalItemCount; i++) {\r\n      if (idToMarketItem[i + 1].seller == msg.sender) {\r\n        uint currentId = i + 1;\r\n        MarketItem storage currentItem = idToMarketItem[currentId];\r\n        items[currentIndex] = currentItem;\r\n        currentIndex += 1;\r\n      }\r\n    }\r\n    return items;\r\n  }\r\n}",
  "sourcePath": "C:\\ACCUBITS\\PROJECT\\OCT'2021\\PROJ1\\NFT_Marketplace\\contracts\\NFTMarket.sol",
  "compiler": {
    "name": "solc",
    "version": "0.8.9+commit.e5eed63a.Emscripten.clang"
  },
  "schemaVersion": "3.4.3",
  "updatedAt": "2021-10-26T05:00:47.578Z",
  "devdoc": {
    "kind": "dev",
    "methods": {},
    "version": 1
  },
  "userdoc": {
    "kind": "user",
    "methods": {},
    "version": 1
  }
}